:020000040200F8
:1000000000000000000000000000000000000000F0
:1000100000000000000000000000000000000000E0
:1000200000000000000000000000000000000000D0
:1000300000000000000000000000000000000000C0
:1000400000000000000000000000000000000000B0
:1000500000000000000000000000000000000000A0
:100060000000000000000000000000000000000090
:100070000000000000000000000000000000000080
:100080000000000000000000000000000000000070
:100090000000000000000000000000000000000060
:1000A0000000000000000000000000000000000050
:1000B0000000000000000000000000000000000040
:1000C0000000000000000000000000000000000030
:1000D0000000000000000000000000000000000020
:1000E0000000000000000000000000000000000010
:1000F0000000000000000000000000000000000000
:10010000D1A4010013000000130000001300000040
:100110001300000013000000130000001300000093
:100120001300000013000000130000001300000083
:100130001300000013000000130000001300000073
:1001400051A4010013000000130000001300000080
:100150001300000013000000130000001300000053
:100160001300000013000000130000001300000043
:100170001300000013000000130000001300000033
:1001800091A4010013000000130000001300000000
:100190001300000013000000130000001300000013
:1001A0001300000013000000130000001300000003
:1001B00013000000130000001300000013000000F3
:1001C00011A4010013000000130000001300000040
:1001D00013000000130000001300000013000000D3
:1001E00013000000130000001300000013000000C3
:1001F00013000000130000001300000013000000B3
:10020000930000001301000093010000130200009E
:100210009302000013030000930300001304000086
:10022000930400001305000093050000130600006E
:100230009306000013070000930700001308000056
:10024000930800001309000093090000130A00003E
:10025000930A0000130B0000930B0000130C000026
:10026000930C0000130D0000930D0000130E00000E
:10027000930E0000130F0000930F00009702000080
:10028000938242F47390523097210000938181F35E
:100290008142732540F1630455007300501013052B
:1002A000F00C731045BD170108001301A1D597028A
:1002B000000093826219054323A06200996273A033
:1002C0000230530000F0D30000F0530100F0D301DE
:1002D00000F0530200F0D30200F0530300F0D30308
:1002E00000F0530400F0D30400F0530500F0D305F0
:1002F00000F0530600F0D30600F0530700F0D307D8
:1003000000F0530800F0D30800F0530900F0D309BF
:1003100000F0530A00F0D30A00F0530B00F0D30BA7
:1003200000F0530C00F0D30C00F0530D00F0D30D8F
:1003300000F0530E00F0D30E00F0530F00F0D30F77
:1003400000F0731010007310200073102030731031
:100350003030EF00E0470F100000371300E8832231
:100360000300638302048323430093D3030193F3C5
:10037000F30085038542B3937200FD132328030025
:100380000F00F00F83220301E39C02FE232C730075
:1003900083228301E39E02FE23287300832203014C
:1003A000E39E72FE0F1000001305F00C731045BDA4
:1003B0000F100000EF00804401458145EF00203C14
:1003C000EF00403B170F0000130F0F08832F0F00A3
:1003D000054F6306FF01170108001301A1C26D71EB
:1003E00006E49300011106E80EEC12F016F41AF878
:1003F0001EFCA2E0A6E4AAE8AEECB2F0B6F4BAF8AD
:10040000BEFC42E146E54AE94EED52F156F55AF995
:100410005EFDE2E1E6E5EAE9EEEDF2F1F6F5FAF984
:10042000FEFD73252034F32510340A86EF00002FDB
:1004300073005010F5BF130000001300000001000E
:1004400000000000000000000000000000000000AC
:10045000000000000000000000000000000000009C
:10046000000000000000000000000000000000008C
:10047000000000000000000000000000000000007C
:10048000828082808280828082808280828082805C
:10049000828082808280828082808280828082804C
:1004A000828082808280828082808280828082803C
:1004B00082808280411106E422E02A84EF00C0534A
:1004C00001256315051C9307C00863E5870493079E
:1004D000C00863E9870493172400376700021307F5
:1004E000079EBA979C4382871B0734F78547B397CB
:1004F000E7000567130707117D8F6312071805676B
:10050000130787887D8F63150716858B81CFEFF0E2
:100510009FF909A89307900963EA87009307D00819
:10052000E374F4FCA2600264410182809307C00C72
:10053000630BF40263FB87009B0704F30D47E3633F
:10054000F7FE2285EFF0FFF6F1BF9307000C63156D
:10055000F400EFF0DFF5F9B7E366F4FC9B0784F3F2
:100560000547E361F7FC2285EFF09FF465BF228524
:10057000EFF03FF145BF2285EFF07FF165B72285AF
:10058000EFF0BFF045B7EFF0FFEF69BFEFF05FEFBF
:1005900051BFEFF0FFEF79B71B05B4FFEFF07FEF2E
:1005A00051B72285EFF05FEFB5BF2285EFF0BFEDC9
:1005B00095BF2285EFF09FEFB5B7EFF0DFED9DB768
:1005C000EFF01FEC85B71B0504FFEFF09FEB99BF21
:1005D000EFF05FEB81BF1B0584FEEFF0DFEA99B718
:1005E0001B0504FEEFF05FEA35BF1B0504FDEFF0CD
:1005F000DFE90DBF1B05C4FCEFF05FE925B71B0564
:1006000044FCEFF0DFE839BF1B05C4FBEFF07FE8E7
:1006100011BF1B0544FBEFF0FFE729B7EFF0BFE781
:1006200011B71B0584FAEFF03FE7EDBDEFF0FFE6F1
:10063000D5BD1B0544F81B552500EFF03FE6DDB5A1
:100640001B0534F81B552500EFF07FE5E1BD1B05C8
:1006500024F81B552500EFF0BFE4E9B51B0514F89D
:100660001B552500EFF0FFE375BDEFF0BFE35DBD67
:100670001B0504F71B552500EFF01FE365B51B05AF
:10068000F4F61B552500EFF05FE269BD2285EF000F
:10069000403749BDB737001088EB8280B73700106C
:1006A00088E38280B737001088F38280B737001064
:1006B00088F78280B737001088FB8280B737001038
:1006C00088E701A039A09861B7370010B8E77D1618
:1006D000A10575FAB7370010A8E38280011106EC76
:1006E00022E82A8411E62285E26042640561828064
:1006F0007D1632E42AE09B952501B707FC03ED8FB8
:10070000812709468A85370503002D055D8DEFF0A9
:100710007FFBD1BFB737001088E38280011106EC60
:1007200022E826E4AA842E8437650002130585C1D9
:10073000EFF05FF637650002130505C3EFF09FF594
:10074000139504020191EFF07FF62945EFF01FF5B4
:1007500037650002130505C4EFF0DFF3131504023B
:100760000191EFF0BFF42945EFF05FF30545EFF09D
:10077000FFF401A0411106E4EFF05FF401A0411184
:1007800006E4EF002026EF00B07781450145EF1029
:100790002017EFF03FFE731045BC731050BC8981E9
:1007A000739065BC0982731076BC89C693E6160007
:1007B000739056BC0F1000008280731045BC7310FC
:1007C00050BC731060BC731070BC0F1000008280AE
:1007D00073D040BC731050BCB70700E88983739096
:1007E00067BCB70700FF8983739077BCB707030026
:1007F0009D07739057BC0F1000008280011106EC1A
:1008000022E826E48144094425A0B7670002139733
:100810001400269793163700938707C5B697946BF5
:1008200090678C631B050400EFF0FFF60504850458
:10083000B147E3FC97FC31A01B050400EFF0FFF784
:100840000504BD47E3FA87FE731040BC731050BC2B
:10085000E2604264A26405618280697106F616F264
:100860001AEE1EEA22E626E2AAFDAEF9B2F5B6F1CC
:10087000BAEDBEE9C2E5C6E172FD76F97AF57EF120
:1008800002AD06A90AA50EA192BC96B89AB49EB074
:10089000AAACAEA8B2A4B6A03ABC3EB842B446B028
:1008A00072AC76A87AA47EA0B71420FEC0400124C2
:1008B0002285EFF03FC0C0C0B27092727263D26303
:1008C000326492646E75CE752E768E766E67CE67C4
:1008D0002E688E686A7ECA7E2A7F8A7F6A20CA2036
:1008E0002A218A216632C632263386336625C625FA
:1008F000262686266237C23722388238622EC22EDA
:10090000222F822F556173002030697106F616F28E
:100910001AEE1EEA22E626E2AAFDAEF9B2F5B6F11B
:10092000BAEDBEE9C2E5C6E172FD76F97AF57EF16F
:1009300002AD06A90AA50EA192BC96B89AB49EB0C3
:10094000AAACAEA8B2A4B6A03ABC3EB842B446B077
:1009500072AC76A87AA47EA0F32740F1B70420FEFB
:10096000C04001242285EFF0FFB4C0C0B270927283
:100970007263D263326492646E75CE752E768E7613
:100980006E67CE672E688E686A7ECA7E2A7F8A7FEF
:100990006A20CA202A218A216632C632263386334B
:1009A0006625C625262686266237C2372238823833
:1009B000622EC22E222F822F556173002030B7275E
:1009C000000223A0A79C11E18280411106E4116678
:1009D0008145372500021305059EEFF03FD0A26048
:1009E00041018280411106E4EF00704E0145EFF0B5
:1009F0001FFDA26041018280B727000203A5079C6A
:100A000082809307F03F63EDA702B7270002931699
:100A1000050213D7C6019387079EBA9798630DC343
:100A2000411106E4B72700029316050213D5C6014B
:100A30009387079EAA9788670297A26041018280E8
:100A4000828082802D7106EE16EA1AE61EE2AAFD69
:100A5000AEF9B2F5B6F1BAEDBEE9C2E5C6E172FD96
:100A600076F97AF57EF102AD06A90AA50EA192BC2F
:100A700096B89AB49EB0AAACAEA8B2A4B6A03ABC3E
:100A80003EB842B446B072AC76A87AA47EA03707CE
:100A900000E81C6BB726000283B6869CB6971CEB59
:100AA000EFF03FFAF260D262326392636E75CE75F8
:100AB0002E768E766E67CE672E688E686A7ECA7EC8
:100AC0002A7F8A7F6A20CA202A218A216632C6327A
:100AD000263386336625C625262686266237C23704
:100AE00022388238622EC22E222F822F1561730087
:100AF00020308280AA86014531A89B172500A99F36
:100B00009B9717001306170090E2034507003D9DD1
:100B10001B0505FD9862834707009B8707FD93F738
:100B2000F70F2546E37BF6FC82801D7186ECA2E878
:100B3000A6E4CAE04EFC52F856F45AF05EEC62E8C5
:100B400066E4AA842E89328BB689BA8B3E84C28A27
:100B5000468C93F7380085EF228A93970A02819397
:100B60006377FA02930C1600CE86CA85130500023D
:100B70008294050A6686D5B77D14B3878B00130A65
:100B80001600CE86CA8503C50700829452866DF48E
:100B9000137C2C0063100C023285E6604664A66468
:100BA0000669E279427AA27A027BE26B426CA26C1D
:100BB00025618280B307664113970A020193E3FD22
:100BC000E7FC13041600CE86CA8513050002829442
:100BD0002286CDB7411106E4C28F468FC24E6248CD
:100BE000825813F32800631503066305080213F304
:100BF00018006301030263960F0013F3C800630B30
:100C000003007D3801A83303F700130E000323000F
:100C1000C301850713930E021353030263F56700A4
:100C20007D43E372F3FE13F318006303030213130F
:100C300008021353030263FD67007D43636AF300F8
:100C40003303F700130E00032300C3018507E1BF40
:100C500013F308016302030413F30840631E030047
:100C600081CF821E93DE0E026389FE0413130802F5
:100C7000135303026303F3044143630E6F060943F6
:100C8000630A6F087D436365F3023303F700130EB5
:100C900000032300C30185077D43636BF300638674
:100CA0000F083303F700130ED0022300C30185079A
:100CB000EFF0BFE7A260410182801383F7FF630A70
:100CC0000302414E6305CF039A874143E3196FFA4C
:100CD00013F30802E30503FA7D43E362F3FA3303F7
:100CE000F700130E80052300C301850761BFF917C4
:100CF00061B79A8751B713F30802E31803FC7D43E9
:100D0000E365F3FC3303F700130E80072300C301F0
:100D100085078DBF7D43E36DF3F83303F700130EB2
:100D200020062300C3018507B1BF13F34800630AFF
:100D300003003303F700130EB0022300C30185073D
:100D400085BF13F38800E30503F63303F700130EA2
:100D500000022300C3018507A1BF5D7186E4BE8F39
:100D6000664F19E3137FFFFE93770F4081C735C3AA
:100D7000814E05A8814E35A01B0E0E031373FE0F86
:100D800093871E00138E0E04B30E2E0023806EFE7A
:100D900033530703636007057D47636DF702BE8E1B
:100DA0001A87337E0703137EFE0F2543E376C3FDC8
:100DB00013730F02630C0300130310043B03C301FE
:100DC0001373F30F59331373F30F5DBF130310063F
:100DD000F5B7BA877AE846473AE446E09B08080048
:100DE0007E881810EFF01FDFA660616182805D7160
:100DF00086E4BE8F664F19E3137FFFFE93770F40A3
:100E000081C735C3814E05A8814E35A01B0E0E0348
:100E10001373FE0F93871E00138E0E04B30E2E0065
:100E200023806EFE33530703636007057D47636DC0
:100E3000F702BE8E1A87337E0703137EFE0F25430B
:100E4000E376C3FD13730F02630C03001303100456
:100E50003B03C3011373F30F59331373F30F5DBFD8
:100E600013031006F5B7BA877AE846473AE446E036
:100E70009B0808007E881810EFF0DFD5A66061613E
:100E80008280757106E522E1A6FCCAF8CEF4D2F0A4
:100E9000D6ECDAE8DEE4E2E066FC6AF86EF42A8A70
:100EA000AE89328936EC3AE8638A05588144E267B4
:100EB00003C507006309055813075002630DE500D9
:100EC00013841400CA862686CE85029AE2678507B7
:100ED0003EECA284E9BF85073EEC014491A0136477
:100EE000140005073AEC854A15A813642400050789
:100EF0003AEC854A25A01364440005073AEC854A7C
:100F000031A81364840005073AEC854A01A81364EC
:100F1000040105073AEC854A11A0814A63840A025C
:100F2000626783470700813713F6F70FC146E3E690
:100F3000C6FE93172600B7660002938686D8B6973A
:100F40009C438287E26703C707009B0707FD93F76F
:100F5000F70FA54663F1F6049307A0026303F704B5
:100F6000568BE26783C607001307E002638DE60431
:100F70006267834707009B8787F913F6F70FC94617
:100F800063E2C60E93172600B76600029386C6DC9E
:100F9000B6979C4382872808EFF0DFB51B0B05004E
:100FA000C9B7C267138787003AE803AB07006347F6
:100FB0000B00012BE26785073EEC65B71364240044
:100FC0003B0B6041C5BF13640440138717003AEC24
:100FD00003C717009B0707FD93F7F70FA54663F3B9
:100FE000F6029307A002E315F7F8C267138787009C
:100FF0003AE89C43BE8A63CD0700812AE2678507F1
:101000003EECBDB72808EFF0FFAE9B0A05008DB798
:10101000814AE5B713660410930717003EEC834638
:1010200017009307C0066384F600328425A8136472
:10103000043009073AEC3DA0136604089307170033
:101040003EEC83461700930780066384F6003284E3
:1010500011A81364040C09073AEC29A013640410C6
:1010600005073AECE26703C507009307800763ECC6
:10107000A70C930740066375F50A93072006630ED5
:10108000F50663F7A70493073006631EF50A09887F
:10109000630E0428854AC267138787003AE8938B5A
:1010A0001400CA862686CE8503C50700029A631BF4
:1010B0000428E26785073EECDE84D5BB1364041088
:1010C00005073AEC45B71364041005073AEC59BF1D
:1010D00093075002631FF50013841400CA86268606
:1010E000CE8513055002029AE26785073EECA28482
:1010F0007DBB930780056318F50493078007630F92
:10110000F504930720066305F50C9307F0066303C7
:10111000F50C930780056301F50C3D98294881A0E3
:101120001B07C5F98547B397E70037171200130768
:1011300017827D8F79F305677D8F6319072C2167EF
:10114000F98F6396072013841400CA862686CE85FD
:10115000029AE26785073EECA28491BB414893075F
:101160008005630DF506930790066307F500930766
:1011700040066303F5004D989377044091C3799836
:1011800093079006630FF50493074006630BF5047D
:1011900093770420639B07109377041063980712DA
:1011A0009377040463850714C267138787003AE8BE
:1011B00003C7070022E45AE0D6888147021701934B
:1011C000CA862686CE855285EFF03FB9AA84A1A8AB
:1011D000094871B7214861B7414851B71364040207
:1011E00059B793770420A1E793770410A5EB937781
:1011F0000404C1CFC267138787003AE883C707009A
:101200009BD6F74133C7D700159F22E45AE0D68812
:101210009BD7F70102170193CA862686CE85528591
:10122000EFF0BFB3AA84E26785073EEC49B1C2671D
:10123000138787003AE89C6313D7F743B346F70058
:1012400022E45AE0D688FD933387E640CA86268694
:10125000CE855285EFF0BFB9AA84F1B7C267138774
:1012600087003AE89C6313D7F743B346F70022E4BC
:101270005AE0D688FD933387E640CA862686CE8517
:101280005285EFF09FADAA8479BF9377040881CB94
:10129000C267138787003AE88397070095B7C2674C
:1012A000138787003AE89C43A1BFC2671387870072
:1012B0003AE8986322E45AE0D6888147CA862686AF
:1012C000CE855285EFF0BFB2AA84B1BFC267138743
:1012D00087003AE8986322E45AE0D6888147CA86B4
:1012E0002686CE855285EFF05FA7AA842DBF93771F
:1012F000040881CBC267138787003AE803D7070049
:1013000055BDC267138787003AE8984365B5938B4C
:101310001400CA862686CE8513050002029AD68757
:10132000DE849B8A1700E3E467FFB5B38547D5BF2A
:1013300093841B00CA865E86CE8513050002029A3E
:10134000A28AA68B1B841A00E3E46AFF9DB3C267DE
:10135000138787003AE803BC070063800A041397E9
:101360000A020193E28719A08507368783C6070022
:1013700081C69306F7FF6DFBBB8B8741937C0440CE
:1013800063880C00D68763F35B01DE879B8B0700C5
:10139000137D2400631E0D0229A87D57E1B7938DAC
:1013A0001400CA862686CE8513050002029AA28BF7
:1013B000EE841B841B00E3E46BFFA28B11A8BE8AA2
:1013C000050C13841400CA862686CE85029AA28450
:1013D00003450C0019C5E3850CFE9B87FAFFE390DB
:1013E0000AFE63100D02E26785073EECC9B4938ADA
:1013F0001400CA862686CE8513050002029AA28BA7
:10140000D6841B841B00E3E46BFFF1BF136414025A
:10141000C267138787003AE8986322E4C1473EE039
:10142000D68841488147CA862686CE855285EFF008
:101430001F9CAA84E26785073EEC95BC371A000220
:10144000130A2AAFA5B463E524011306F9FF11A01E
:101450002686CA86CE850145029A1B850400AA60AD
:101460000A64E6744679A679067AE66A466BA66B44
:10147000066CE27C427DA27D4961828011E182801E
:10148000411106E4EFF00FA9A260410182801D71B5
:1014900006EC2EF432F836FCBAE0BEE4C2E8C6EC44
:1014A00038103AE4AA867D568A853715000213055E
:1014B000C547EFF01F9DE26025618280411106E47F
:1014C00013054006EFF08F9FA26041018280411119
:1014D00006E413055006EFF06F9EA2604101828082
:1014E000411106E413056006EFF04F9DA260410133
:1014F0008280411106E413057006EFF02F9CA26074
:1015000041018280411106E413058006EFF00F9B34
:10151000A26041018280411106E413059006EFF0BC
:10152000EF99A26041018280411106E41305A006F3
:10153000EFF0CF98A26041018280411106E41305CB
:10154000B006EFF0AF97A26041018280411106E43E
:101550001305C006EFF08F96A26041018280411111
:1015600006E41305D006EFF06F95A260410182807A
:10157000411106E41305F006EFF04F94A26041011B
:101580008280411106E413050007EFF02F93A2605B
:1015900041018280411106E413051007EFF00F921C
:1015A000A26041018280411106E413053007EFF08B
:1015B000EF90A260410182802D7106EE16EA1AE6D4
:1015C0001EE2AAFDAEF9B2F5B6F1BAEDBEE9C2E58A
:1015D000C6E172FD76F97AF57EF102AD06A90AA59B
:1015E0000EA192BC96B89AB49EB0AAACAEA8B2A412
:1015F000B6A03ABC3EB842B446B072AC76A87AA463
:101600007EA0F3272034BD8B8A07376700021307BB
:1016100087E1BA979C438287EFF05FEAF260D2627B
:10162000326392636E75CE752E768E766E67CE6758
:101630002E688E686A7ECA7E2A7F8A7F6A20CA20C8
:101640002A218A216632C632263386336625C6258C
:10165000262686266237C23722388238622EC22E6C
:10166000222F822F156173002030EFF05FE67DB7E7
:10167000EFF01FE765B7EFF0DFE74DB7EFF09FE85A
:1016800071BFEFF05FE959BFEFF01FEA41BFEFF024
:10169000DFEA69B7EFF09FEB51B7EFF05FECBDBF4A
:1016A000EFF01FEDA5BFEFF0DFED8DBFEFF09FEE88
:1016B000B5B7EFF05FEF9DB701A073002030730066
:1016C00020307300203073002030730020307327E7
:1016D000403073104030B72700029387078093E7AC
:1016E000170073905730F327003093E7A7007390EB
:1016F000073085679387A780D98F739047308280A2
:1017000082800000000000000000000000000000D7
:1017100000000000000000000000000000000000C9
:1017200000000000000000000000000000000000B9
:1017300000000000000000000000000000000000A9
:101740000000000000000000000000000000000099
:101750000000000000000000000000000000000089
:101760000000000000000000000000000000000079
:101770000000000000000000000000000000000069
:101780000000000000000000000000000000000059
:101790000000000000000000000000000000000049
:1017A0000000000000000000000000000000000039
:1017B0000000000000000000000000000000000029
:1017C0000000000000000000000000000000000019
:1017D0000000000000000000000000000000000009
:1017E00000000000000000000000000000000000F9
:1017F00000000000000000000000000000000000E9
:101800006FF09FDB6FF0BFEB6FF03FEB6FF07FEBA4
:101810006FF0BFEA6FF03FEB6FF03FEA6FF08FA21F
:101820006FF0BFE96FF06F836FF03FE96FF0EF8DFE
:101830006FF0BFE86FF07FE86FF03FE86FF0FFE711
:101840006FF0BFE76FF07FE76FF03FE76FF0FFE605
:101850006FF0BFE66FF07FE66FF03FE66FF0FFE5F9
:101860006FF0BFE56FF07FE56FF03FE56FF0FFE4ED
:101870006FF0BFE46FF07FE46FF03FE46FF0FFE4E0
:101880000000000000000000000000000000000058
:101890000000000000000000000000000000000048
:1018A0000000000000000000000000000000000038
:1018B0000000000000000000000000000000000028
:1018C0000000000000000000000000000000000018
:1018D0000000000000000000000000000000000008
:1018E00000000000000000000000000000000000F8
:1018F00000000000000000000000000000000000E8
:10190000411106E422E037650002130585E5EFE0AA
:101910007FD837650002130585E6EFE0BFD71305D2
:101920005004EFE0BFD71305C004EFE03FD7130525
:101930003004EFE0BFD613054005EFE03FD6294560
:10194000EFE0DFD537650002130585E7EFE09FD4B0
:1019500037650002130585E8EFF07FB337650002B5
:10196000130505E9EFE01FD33774AB370A041305FD
:10197000F4EEEFE03FD42945EFE05FD23765000297
:10198000130505EAEFE01FD11305F4EEEFE01FD2D7
:101990002945EFE0BFD037650002130505EBEFE006
:1019A0007FCF1305F4EEEFE0FFCF2945EFE01FCF27
:1019B0000145A26002644101828000000000000035
:1019C0000000000000000000000000000000000017
:1019D0000000000000000000000000000000000007
:1019E00000000000000000000000000000000000F7
:1019F00000000000000000000000000000000000E7
:1059E0006E050002760500027E05000286050002B3
:1059F0008C0500029805000298050002A20500022D
:105A0000AA050002B2050002BA05000292050002D2
:105A1000C00500022405000224050002240500023E
:105A2000C6050002C6050002240500022405000286
:105A3000D0050002D0050002D005000224050002B6
:105A4000D6050002D6050002D6050002D6050002E2
:105A5000240500022405000224050002240500029A
:105A6000E0050002E0050002E0050002E00500029A
:105A7000E0050002E0050002E0050002E00500028A
:105A8000240500022405000224050002240500026A
:105A9000240500022405000224050002240500025A
:105AA000EA050002EA0500022405000224050002BE
:105AB000F4050002F4050002F4050002F4050002FA
:105AC000F4050002F405000224050002240500028A
:105AD000FE050002FE050002FE050002FE050002B2
:105AE000FE05000224050002240500022405000230
:105AF0000806000208060002080600020806000266
:105B0000080600020806000208060002240500023A
:105B100012060002120600022405000224050002FB
:105B200024050002240500022405000224050002C9
:105B30001C060002240500022405000224050002C0
:105B400022060002220600022405000224050002AB
:105B50002405000224050002240500022405000299
:105B60002405000224050002240500022405000289
:105B70002405000224050002240500022405000279
:105B80002405000224050002240500022405000269
:105B90002C06000224050002240500022405000250
:105BA0002405000224050002240500022405000249
:105BB0002405000224050002240500022405000239
:105BC0002405000224050002240500022405000229
:105BD00032060002400600024E0600025C06000289
:105BE00032060002400600024E0600025C06000279
:105BF00032060002400600024E0600025C06000269
:105C000032060002400600024E0600025C06000258
:105C10006A060002000000004561726C792074720F
:105C2000617020657869740A0000000000000000BF
:105C30006D63617573653A2000000000000000008C
:105C40006D65706320203A20000000000000000015
:105C5000000000FEFFFFFFFF000000FFFFFFFFFF4F
:105C6000060001000000000000000002000000002B
:105C70000000F8FFFFFFFFFFFE0300000000000030
:105C80000000000000000000000000000000000014
:105C90000000000000000000000000000000000004
:105CA00000000000000000000000000000000000F4
:105CB00000000000000000000000000000000000E4
:105CC00000000000000000000000201E0000000096
:105CD00000C0FFFFFFFFFFFFB60101000000000052
:105CE0000000001E000000000000E0FFFFFFFFFFBB
:105CF000B6010100000000000000000C00000000E0
:105D00000000E0FFFFFFFFFFB60101000000000000
:105D10000000001000000000000000F8FFFFFFFF7F
:105D2000B6010100000000000000001800000000A3
:105D3000000000F8FFFFFFFFB601010000000000B7
:105D40000000002000000000000080FFFFFFFFFFB8
:105D5000B601010000000000000000000400000087
:105D600000000000FCFFFFFFB60101000000000082
:105D7000000000001400000000000000FCFFFFFF16
:105D8000B601010000000000020F00021A0F00021D
:105D90001A0F00020E0F00021A0F00021A0F000263
:105DA0001A0F00021A0F00021A0F00021A0F000247
:105DB0001A0F0002F60E00021A0F0002EA0E00028D
:105DC0001A0F00021A0F0002DE0E00023810000245
:105DD00064100002BC1000026410000214100002E3
:105DE00064100002641000026410000264100002DB
:105DF0006410000264100002641000025C100002D3
:105E000064100002641000026410000264100002BA
:105E100064100002C6100002181600026A16000282
:105E200070160002761600027C160002821600022E
:105E3000881600028E160002941600029A160002BE
:105E4000B8160002A0160002A6160002AC16000248
:105E5000B8160002B216000248656C6C6F20776FAE
:105E6000726C640A000000002020434841523A202E
:105E700000000000000000005052494E54463A20F5
:105E80000000000000000000414243210A00000021
:105E90002020204445433A2000000000000000007C
:105EA0002020204845583A20000000000000000053
:105EB00020202042494E3A2000000000000000004F
:0400000502000200F3
:00000001FF
